{
  "contractName": "Storage",
  "abi": [
    {
      "inputs": [
        {
          "internalType": "uint256",
          "name": "",
          "type": "uint256"
        }
      ],
      "name": "files",
      "outputs": [
        {
          "internalType": "string",
          "name": "hash",
          "type": "string"
        }
      ],
      "stateMutability": "view",
      "type": "function",
      "constant": true
    },
    {
      "inputs": [
        {
          "internalType": "string",
          "name": "_hash",
          "type": "string"
        }
      ],
      "name": "addFile",
      "outputs": [],
      "stateMutability": "nonpayable",
      "type": "function"
    },
    {
      "inputs": [],
      "name": "getFiles",
      "outputs": [
        {
          "components": [
            {
              "internalType": "string",
              "name": "hash",
              "type": "string"
            }
          ],
          "internalType": "struct Storage.FileInfo[]",
          "name": "",
          "type": "tuple[]"
        }
      ],
      "stateMutability": "view",
      "type": "function",
      "constant": true
    }
  ],
  "bytecode": "0x608060405234801561001057600080fd5b506109b9806100206000396000f3fe608060405234801561001057600080fd5b50600436106100415760003560e01c80632da96d7314610046578063eb9b9b6414610064578063f4c714b414610080575b600080fd5b61004e6100b0565b60405161005b9190610422565b60405180910390f35b61007e6004803603810190610079919061058d565b61019d565b005b61009a6004803603810190610095919061060c565b6101f4565b6040516100a79190610683565b60405180910390f35b60606000805480602002602001604051908101604052809291908181526020016000905b8282101561019457838290600052602060002001604051806020016040529081600082018054610103906106d4565b80601f016020809104026020016040519081016040528092919081815260200182805461012f906106d4565b801561017c5780601f106101515761010080835404028352916020019161017c565b820191906000526020600020905b81548152906001019060200180831161015f57829003601f168201915b505050505081525050815260200190600101906100d4565b50505050905090565b600060405180602001604052808381525090506000819080600181540180825580915050600190039060005260206000200160009091909190915060008201518160000190816101ed91906108b1565b5050505050565b6000818154811061020457600080fd5b90600052602060002001600091509050806000018054610223906106d4565b80601f016020809104026020016040519081016040528092919081815260200182805461024f906106d4565b801561029c5780601f106102715761010080835404028352916020019161029c565b820191906000526020600020905b81548152906001019060200180831161027f57829003601f168201915b5050505050905081565b600081519050919050565b600082825260208201905092915050565b6000819050602082019050919050565b600081519050919050565b600082825260208201905092915050565b60005b8381101561030c5780820151818401526020810190506102f1565b60008484015250505050565b6000601f19601f8301169050919050565b6000610334826102d2565b61033e81856102dd565b935061034e8185602086016102ee565b61035781610318565b840191505092915050565b6000602083016000830151848203600086015261037f8282610329565b9150508091505092915050565b60006103988383610362565b905092915050565b6000602082019050919050565b60006103b8826102a6565b6103c281856102b1565b9350836020820285016103d4856102c2565b8060005b8581101561041057848403895281516103f1858261038c565b94506103fc836103a0565b925060208a019950506001810190506103d8565b50829750879550505050505092915050565b6000602082019050818103600083015261043c81846103ad565b905092915050565b6000604051905090565b600080fd5b600080fd5b600080fd5b600080fd5b7f4e487b7100000000000000000000000000000000000000000000000000000000600052604160045260246000fd5b61049a82610318565b810181811067ffffffffffffffff821117156104b9576104b8610462565b5b80604052505050565b60006104cc610444565b90506104d88282610491565b919050565b600067ffffffffffffffff8211156104f8576104f7610462565b5b61050182610318565b9050602081019050919050565b82818337600083830152505050565b600061053061052b846104dd565b6104c2565b90508281526020810184848401111561054c5761054b61045d565b5b61055784828561050e565b509392505050565b600082601f83011261057457610573610458565b5b813561058484826020860161051d565b91505092915050565b6000602082840312156105a3576105a261044e565b5b600082013567ffffffffffffffff8111156105c1576105c0610453565b5b6105cd8482850161055f565b91505092915050565b6000819050919050565b6105e9816105d6565b81146105f457600080fd5b50565b600081359050610606816105e0565b92915050565b6000602082840312156106225761062161044e565b5b6000610630848285016105f7565b91505092915050565b600082825260208201905092915050565b6000610655826102d2565b61065f8185610639565b935061066f8185602086016102ee565b61067881610318565b840191505092915050565b6000602082019050818103600083015261069d818461064a565b905092915050565b7f4e487b7100000000000000000000000000000000000000000000000000000000600052602260045260246000fd5b600060028204905060018216806106ec57607f821691505b6020821081036106ff576106fe6106a5565b5b50919050565b60008190508160005260206000209050919050565b60006020601f8301049050919050565b600082821b905092915050565b6000600883026107677fffffffffffffffffffffffffffffffffffffffffffffffffffffffffffffffff8261072a565b610771868361072a565b95508019841693508086168417925050509392505050565b6000819050919050565b60006107ae6107a96107a4846105d6565b610789565b6105d6565b9050919050565b6000819050919050565b6107c883610793565b6107dc6107d4826107b5565b848454610737565b825550505050565b600090565b6107f16107e4565b6107fc8184846107bf565b505050565b5b81811015610820576108156000826107e9565b600181019050610802565b5050565b601f8211156108655761083681610705565b61083f8461071a565b8101602085101561084e578190505b61086261085a8561071a565b830182610801565b50505b505050565b600082821c905092915050565b60006108886000198460080261086a565b1980831691505092915050565b60006108a18383610877565b9150826002028217905092915050565b6108ba826102d2565b67ffffffffffffffff8111156108d3576108d2610462565b5b6108dd82546106d4565b6108e8828285610824565b600060209050601f83116001811461091b5760008415610909578287015190505b6109138582610895565b86555061097b565b601f19841661092986610705565b60005b828110156109515784890151825560018201915060208501945060208101905061092c565b8683101561096e578489015161096a601f891682610877565b8355505b6001600288020188555050505b50505050505056fea2646970667358221220c4d2db92392bdd3bea72c8ddde33de20b44960715054748778c8f242eb93c7fb64736f6c63430008130033",
  "immutableReferences": {},
  "source": "//SPDX-License-Identifier: MIT\npragma solidity ^0.8.19;\n\ncontract Storage {\n    struct FileInfo {\n        string hash;\n    }\n\n    FileInfo[] public files;\n\n    function addFile(string memory _hash) public {\n        FileInfo memory newFile = FileInfo(_hash);\n        files.push(newFile);\n    }\n\n    function getFiles() public view returns (FileInfo[] memory) {\n        return files;\n    }\n}\n",
  "sourcePath": "/Users/sami/sami/courses/cloud/distributed-storage-blockchain/blockchain/contracts/Storage.sol",
  "compiler": {
    "name": "solc",
    "version": "0.8.19+commit.7dd6d404.Emscripten.clang"
  },
  "schemaVersion": "3.4.13",
  "updatedAt": "2023-04-12T04:12:33.305Z",
  "networkType": "ethereum",
  "devdoc": {
    "kind": "dev",
    "methods": {},
    "version": 1
  },
  "userdoc": {
    "kind": "user",
    "methods": {},
    "version": 1
  }
}